{
  "_format": "hh-sol-artifact-1",
  "contractName": "MyEpicNFT",
  "sourceName": "contracts/MyEpicNFT.sol",
  "abi": [
    {
      "inputs": [],
      "stateMutability": "nonpayable",
      "type": "constructor"
    },
    {
      "anonymous": false,
      "inputs": [
        {
          "indexed": true,
          "internalType": "address",
          "name": "owner",
          "type": "address"
        },
        {
          "indexed": true,
          "internalType": "address",
          "name": "approved",
          "type": "address"
        },
        {
          "indexed": true,
          "internalType": "uint256",
          "name": "tokenId",
          "type": "uint256"
        }
      ],
      "name": "Approval",
      "type": "event"
    },
    {
      "anonymous": false,
      "inputs": [
        {
          "indexed": true,
          "internalType": "address",
          "name": "owner",
          "type": "address"
        },
        {
          "indexed": true,
          "internalType": "address",
          "name": "operator",
          "type": "address"
        },
        {
          "indexed": false,
          "internalType": "bool",
          "name": "approved",
          "type": "bool"
        }
      ],
      "name": "ApprovalForAll",
      "type": "event"
    },
    {
      "anonymous": false,
      "inputs": [
        {
          "indexed": false,
          "internalType": "address",
          "name": "sender",
          "type": "address"
        },
        {
          "indexed": false,
          "internalType": "uint256",
          "name": "tokenId",
          "type": "uint256"
        }
      ],
      "name": "NewEpicNFTMinted",
      "type": "event"
    },
    {
      "anonymous": false,
      "inputs": [
        {
          "indexed": true,
          "internalType": "address",
          "name": "from",
          "type": "address"
        },
        {
          "indexed": true,
          "internalType": "address",
          "name": "to",
          "type": "address"
        },
        {
          "indexed": true,
          "internalType": "uint256",
          "name": "tokenId",
          "type": "uint256"
        }
      ],
      "name": "Transfer",
      "type": "event"
    },
    {
      "inputs": [
        {
          "internalType": "addres",
          "name": "to",
          "type": "address"
        },
        {
          "internalType": "uint256",
          "name": "tokenId",
          "type": "uint256"
        }
      ],
      "name": "approve",
      "outputs": [],
      "stateMutability": "nonpayable",
      "type": "function"
    },
    {
      "inputs": [
        {
          "internalType": "address",
          "name": "owner",
          "type": "address"
        }
      ],
      "name": "balanceOf",
      "outputs": [
        {
          "internalType": "uint256",
          "name": "",
          "type": "uint256"
        }
      ],
      "stateMutability": "view",
      "type": "function"
    },
    {
      "inputs": [
        {
          "internalType": "uint256",
          "name": "tokenId",
          "type": "uint256"
        }
      ],
      "name": "getApproved",
      "outputs": [
        {
          "internalType": "address",
          "name": "",
          "type": "address"
        }
      ],
      "stateMutability": "view",
      "type": "function"
    },
    {
      "inputs": [
        {
          "internalType": "address",
          "name": "owner",
          "type": "address"
        },
        {
          "internalType": "address",
          "name": "operator",
          "type": "address"
        }
      ],
      "name": "isApprovedForAll",
      "outputs": [
        {
          "internalType": "bool",
          "name": "",
          "type": "bool"
        }
      ],
      "stateMutability": "view",
      "type": "function"
    },
    {
      "inputs": [
        {
          "internalType": "string",
          "name": "userInput",
          "type": "string"
        }
      ],
      "name": "makeAnEpicNFT",
      "outputs": [],
      "stateMutability": "nonpayable",
      "type": "function"
    },
    {
      "inputs": [],
      "name": "name",
      "outputs": [
        {
          "internalType": "string",
          "name": "",
          "type": "string"
        }
      ],
      "stateMutability": "view",
      "type": "function"
    },
    {
      "inputs": [
        {
          "internalType": "uint256",
          "name": "tokenId",
          "type": "uint256"
        }
      ],
      "name": "ownerOf",
      "outputs": [
        {
          "internalType": "address",
          "name": "",
          "type": "address"
        }
      ],
      "stateMutability": "view",
      "type": "function"
    },
    {
      "inputs": [
        {
          "internalType": "uint256",
          "name": "tokenId",
          "type": "uint256"
        }
      ],
      "name": "pickRandomFirstWord",
      "outputs": [
        {
          "internalType": "string",
          "name": "",
          "type": "string"
        }
      ],
      "stateMutability": "view",
      "type": "function"
    },
    {
      "inputs": [
        {
          "internalType": "uint256",
          "name": "tokenId",
          "type": "uint256"
        }
      ],
      "name": "pickRandomSecondWord",
      "outputs": [
        {
          "internalType": "string",
          "name": "",
          "type": "string"
        }
      ],
      "stateMutability": "view",
      "type": "function"
    },
    {
      "inputs": [
        {
          "internalType": "uint256",
          "name": "tokenId",
          "type": "uint256"
        }
      ],
      "name": "pickRandomThirdWord",
      "outputs": [
        {
          "internalType": "string",
          "name": "",
          "type": "string"
        }
      ],
      "stateMutability": "view",
      "type": "function"
    },
    {
      "inputs": [
        {
          "internalType": "address",
          "name": "from",
          "type": "address"
        },
        {
          "internalType": "address",
          "name": "to",
          "type": "address"
        },
        {
          "internalType": "uint256",
          "name": "tokenId",
          "type": "uint256"
        }
      ],
      "name": "safeTransferFrom",
      "outputs": [],
      "stateMutability": "nonpayable",
      "type": "function"
    },
    {
      "inputs": [
        {
          "internalType": "address",
          "name": "from",
          "type": "address"
        },
        {
          "internalType": "address",
          "name": "to",
          "type": "address"
        },
        {
          "internalType": "uint256",
          "name": "tokenId",
          "type": "uint256"
        },
        {
          "internalType": "bytes",
          "name": "_data",
          "type": "bytes"
        }
      ],
      "name": "safeTransferFrom",
      "outputs": [],
      "stateMutability": "nonpayable",
      "type": "function"
    },
    {
      "inputs": [
        {
          "internalType": "address",
          "name": "operator",
          "type": "address"
        },
        {
          "internalType": "bool",
          "name": "approved",
          "type": "bool"
        }
      ],
      "name": "setApprovalForAll",
      "outputs": [],
      "stateMutability": "nonpayable",
      "type": "function"
    },
    {
      "inputs": [
        {
          "internalType": "bytes4",
          "name": "interfaceId",
          "type": "bytes4"
        }
      ],
      "name": "supportsInterface",
      "outputs": [
        {
          "internalType": "bool",
          "name": "",
          "type": "bool"
        }
      ],
      "stateMutability": "view",
      "type": "function"
    },
    {
      "inputs": [],
      "name": "symbol",
      "outputs": [
        {
          "internalType": "string",
          "name": "",
          "type": "string"
        }
      ],
      "stateMutability": "view",
      "type": "function"
    },
    {
      "inputs": [
        {
          "internalType": "uint256",
          "name": "tokenId",
          "type": "uint256"
        }
      ],
      "name": "tokenURI",
      "outputs": [
        {
          "internalType": "string",
          "name": "",
          "type": "string"
        }
      ],
      "stateMutability": "view",
      "type": "function"
    },
    {
      "inputs": [
        {
          "internalType": "address",
          "name": "from",
          "type": "address"
        },
        {
          "internalType": "address",
          "name": "to",
          "type": "address"
        },
        {
          "internalType": "uint256",
          "name": "tokenId",
          "type": "uint256"
        }
      ],
      "name": "transferFrom",
      "outputs": [],
      "stateMutability": "nonpayable",
      "type": "function"
    }
  ],
  "bytecode": "0x608060405260405180610160016040528061012f81526020016200426661012f913960089080519060200190620000389291906200067e565b506040518060c001604052806040518060400160405280600581526020017f657069632000000000000000000000000000000000000000000000000000000081525081526020016040518060400160405280600681526020017f626173656420000000000000000000000000000000000000000000000000000081525081526020016040518060400160405280600981526020017f6d616a657374696320000000000000000000000000000000000000000000000081525081526020016040518060400160405280600781526020017f6f70756c656e740000000000000000000000000000000000000000000000000081525081526020016040518060400160405280600781526020017f656c61746564200000000000000000000000000000000000000000000000000081525081526020016040518060400160405280600681526020017f676e61726c7900000000000000000000000000000000000000000000000000008152508152506009906006620001b69291906200070f565b506040518060c001604052806040518060400160405280600481526020017f676f64200000000000000000000000000000000000000000000000000000000081525081526020016040518060400160405280600781526020017f676f64657373200000000000000000000000000000000000000000000000000081525081526020016040518060400160405280600781526020017f7072696e6365200000000000000000000000000000000000000000000000000081525081526020016040518060400160405280600981526020017f7072696e6365737320000000000000000000000000000000000000000000000081525081526020016040518060400160405280600881526020017f70656173616e742000000000000000000000000000000000000000000000000081525081526020016040518060400160405280600681526020017f6e6f626c65200000000000000000000000000000000000000000000000000000815250815250600a906006620003349291906200070f565b506040518060c001604052806040518060400160405280600a81526020017f6f6620426974636f696e0000000000000000000000000000000000000000000081525081526020016040518060400160405280600881526020017f6f6620457468657200000000000000000000000000000000000000000000000081525081526020016040518060400160405280600981526020017f6f6620536f6c616e61000000000000000000000000000000000000000000000081525081526020016040518060400160405280600781526020017f6f6620446f67650000000000000000000000000000000000000000000000000081525081526020016040518060400160405280600b81526020017f6f66204c697465636f696e00000000000000000000000000000000000000000081525081526020016040518060400160405280600c81526020017f6f6620436861696e6c696e6b0000000000000000000000000000000000000000815250815250600b906006620004b29291906200070f565b50348015620004c057600080fd5b506040518060400160405280600981526020017f5371756172654e465400000000000000000000000000000000000000000000008152506040518060400160405280600681526020017f53515541524500000000000000000000000000000000000000000000000000008152508160009080519060200190620005459291906200067e565b5080600190805190602001906200055e9291906200067e565b505050620005ac6040518060400160405280601e81526020017f54686973206973206d79204e465420636f6e74726163742e20576f6168210000815250620005b260201b620010d61760201c565b62000930565b6200065281604051602401620005c9919062000844565b6040516020818303038152906040527f41304fac000000000000000000000000000000000000000000000000000000007bffffffffffffffffffffffffffffffffffffffffffffffffffffffff19166020820180517bffffffffffffffffffffffffffffffffffffffffffffffffffffffff83818316178352505050506200065560201b60201c565b50565b60008151905060006a636f6e736f6c652e6c6f679050602083016000808483855afa5050505050565b8280546200068c90620008ba565b90600052602060002090601f016020900481019282620006b05760008555620006fc565b82601f10620006cb57805160ff1916838001178555620006fc565b82800160010185558215620006fc579182015b82811115620006fb578251825591602001919060010190620006de565b5b5090506200070b919062000776565b5090565b82805482825590600052602060002090810192821562000763579160200282015b8281111562000762578251829080519060200190620007519291906200067e565b509160200191906001019062000730565b5b50905062000772919062000795565b5090565b5b808211156200079157600081600090555060010162000777565b5090565b5b80821115620007b95760008181620007af9190620007bd565b5060010162000796565b5090565b508054620007cb90620008ba565b6000825580601f10620007df575062000800565b601f016020900490600052602060002090810190620007ff919062000776565b5b50565b6000620008108262000868565b6200081c818562000873565b93506200082e81856020860162000884565b62000839816200091f565b840191505092915050565b6000602082019050818103600083015262000860818462000803565b905092915050565b600081519050919050565b600082825260208201905092915050565b60005b83811015620008a457808201518184015260208101905062000887565b83811115620008b4576000848401525b50505050565b60006002820490506001821680620008d357607f821691505b60208210811415620008ea57620008e9620008f0565b5b50919050565b7f4e487b7100000000000000000000000000000000000000000000000000000000600052602260045260246000fd5b6000601f19601f8301169050919050565b61392680620009406000396000f3fe608060405234801561001057600080fd5b506004361061010b5760003560e01c80636352211e116100a2578063b187301f11610071578063b187301f146102c8578063b88d4fde146102f8578063c575757a14610314578063c87b56dd14610344578063e985e9c5146103745761010b565b80636352211e1461022e57806370a082311461025e57806395d89b411461028e578063a22cb465146102ac5761010b565b806323b872dd116100de57806323b872dd146101aa5780632de38d68146101c657806339fa8daf146101f657806342842e0e146102125761010b565b806301ffc9a71461011057806306fdde0314610140578063081812fc1461015e578063095ea7b31461018e575b600080fd5b61012a60048036038101906101259190612501565b6103a4565b604051610137919061319c565b60405180910390f35b610148610486565b60405161015591906131b7565b60405180910390f35b61017860048036038101906101739190612598565b610518565b604051610185919061310c565b60405180910390f35b6101a860048036038101906101a391906124c5565b61059d565b005b6101c460048036038101906101bf91906123bf565b6106b5565b005b6101e060048036038101906101db9190612598565b610715565b6040516101ed91906131b7565b60405180910390f35b610210600480360381019061020b9190612553565b610833565b005b61022c600480360381019061022791906123bf565b610a20565b005b61024860048036038101906102439190612598565b610a40565b604051610255919061310c565b60405180910390f35b6102786004803603810190610273919061235a565b610af2565b6040516102859190613417565b60405180910390f35b610296610baa565b6040516102a391906131b7565b60405180910390f35b6102c660048036038101906102c19190612489565b610c3c565b005b6102e260048036038101906102dd9190612598565b610c52565b6040516102ef91906131b7565b60405180910390f35b610312600480360381019061030d919061240e565b610d70565b005b61032e60048036038101906103299190612598565b610dd2565b60405161033b91906131b7565b60405180910390f35b61035e60048036038101906103599190612598565b610ef0565b60405161036b91906131b7565b60405180910390f35b61038e60048036038101906103899190612383565b611042565b60405161039b919061319c565b60405180910390f35b60007f80ac58cd000000000000000000000000000000000000000000000000000000007bffffffffffffffffffffffffffffffffffffffffffffffffffffffff1916827bffffffffffffffffffffffffffffffffffffffffffffffffffffffff1916148061046f57507f5b5e139f000000000000000000000000000000000000000000000000000000007bffffffffffffffffffffffffffffffffffffffffffffffffffffffff1916827bffffffffffffffffffffffffffffffffffffffffffffffffffffffff1916145b8061047f575061047e8261116f565b5b9050919050565b606060008054610495906136b6565b80601f01602080910402602001604051908101604052809291908181526020018280546104c1906136b6565b801561050e5780601f106104e35761010080835404028352916020019161050e565b820191906000526020600020905b8154815290600101906020018083116104f157829003601f168201915b5050505050905090565b6000610523826111d9565b610562576040517f08c379a000000000000000000000000000000000000000000000000000000000815260040161055990613377565b60405180910390fd5b6004600083815260200190815260200160002060009054906101000a900473ffffffffffffffffffffffffffffffffffffffff169050919050565b60006105a882610a40565b90508073ffffffffffffffffffffffffffffffffffffffff168373ffffffffffffffffffffffffffffffffffffffff161415610619576040517f08c379a0000000000000000000000000000000000000000000000000000000008152600401610610906133d7565b60405180910390fd5b8073ffffffffffffffffffffffffffffffffffffffff16610638611245565b73ffffffffffffffffffffffffffffffffffffffff161480610667575061066681610661611245565b611042565b5b6106a6576040517f08c379a000000000000000000000000000000000000000000000000000000000815260040161069d906132b7565b60405180910390fd5b6106b0838361124d565b505050565b6106c66106c0611245565b82611306565b610705576040517f08c379a00000000000000000000000000000000000000000000000000000000081526004016106fc906133f7565b60405180910390fd5b6107108383836113e4565b505050565b6060600061074961072584611640565b60405160200161073591906130c8565b6040516020818303038152906040526117ed565b90506009805490508161075c9190613731565b905060098181548110610798577f4e487b7100000000000000000000000000000000000000000000000000000000600052603260045260246000fd5b9060005260206000200180546107ad906136b6565b80601f01602080910402602001604051908101604052809291908181526020018280546107d9906136b6565b80156108265780601f106107fb57610100808354040283529160200191610826565b820191906000526020600020905b81548152906001019060200180831161080957829003601f168201915b5050505050915050919050565b600061083f6007611820565b9050600061084c82610715565b9050600061085983610c52565b9050600061086684610dd2565b9050600083838360405160200161087f93929190612fd0565b604051602081830303815290604052905060006008826040516020016108a6929190613001565b604051602081830303815290604052905060006108ef8989856108c88661182e565b6040516020016108db9493929190613074565b60405160208183030381529060405261182e565b905060008160405160200161090491906130ea565b60405160208183030381529060405290506109536040518060400160405280601581526020017f0a2d2d2d2d2d2d2d2d2d2d2d2d2d2d2d2d2d2d2d2d00000000000000000000008152506110d6565b61095c816110d6565b61099a6040518060400160405280601581526020017f2d2d2d2d2d2d2d2d2d2d2d2d2d2d2d2d2d2d2d2d0a00000000000000000000008152506110d6565b6109a433896119cd565b6109ae88826119eb565b6109b86007611a5f565b6109db60405180606001604052806025815260200161388c602591398933611a75565b7febb98688741ffa4c7589bf325de30cf7becb63de567842e1ccdb6cb949fdc82c3389604051610a0c929190613173565b60405180910390a150505050505050505050565b610a3b83838360405180602001604052806000815250610d70565b505050565b6000806002600084815260200190815260200160002060009054906101000a900473ffffffffffffffffffffffffffffffffffffffff169050600073ffffffffffffffffffffffffffffffffffffffff168173ffffffffffffffffffffffffffffffffffffffff161415610ae9576040517f08c379a0000000000000000000000000000000000000000000000000000000008152600401610ae0906132f7565b60405180910390fd5b80915050919050565b60008073ffffffffffffffffffffffffffffffffffffffff168273ffffffffffffffffffffffffffffffffffffffff161415610b63576040517f08c379a0000000000000000000000000000000000000000000000000000000008152600401610b5a906132d7565b60405180910390fd5b600360008373ffffffffffffffffffffffffffffffffffffffff1673ffffffffffffffffffffffffffffffffffffffff168152602001908152602001600020549050919050565b606060018054610bb9906136b6565b80601f0160208091040260200160405190810160405280929190818152602001828054610be5906136b6565b8015610c325780601f10610c0757610100808354040283529160200191610c32565b820191906000526020600020905b815481529060010190602001808311610c1557829003601f168201915b5050505050905090565b610c4e610c47611245565b8383611b14565b5050565b60606000610c86610c6284611640565b604051602001610c729190613052565b6040516020818303038152906040526117ed565b9050600a8054905081610c999190613731565b9050600a8181548110610cd5577f4e487b7100000000000000000000000000000000000000000000000000000000600052603260045260246000fd5b906000526020600020018054610cea906136b6565b80601f0160208091040260200160405190810160405280929190818152602001828054610d16906136b6565b8015610d635780601f10610d3857610100808354040283529160200191610d63565b820191906000526020600020905b815481529060010190602001808311610d4657829003601f168201915b5050505050915050919050565b610d81610d7b611245565b83611306565b610dc0576040517f08c379a0000000000000000000000000000000000000000000000000000000008152600401610db7906133f7565b60405180910390fd5b610dcc84848484611c81565b50505050565b60606000610e06610de284611640565b604051602001610df29190613030565b6040516020818303038152906040526117ed565b9050600b8054905081610e199190613731565b9050600b8181548110610e55577f4e487b7100000000000000000000000000000000000000000000000000000000600052603260045260246000fd5b906000526020600020018054610e6a906136b6565b80601f0160208091040260200160405190810160405280929190818152602001828054610e96906136b6565b8015610ee35780601f10610eb857610100808354040283529160200191610ee3565b820191906000526020600020905b815481529060010190602001808311610ec657829003601f168201915b5050505050915050919050565b6060610efb826111d9565b610f3a576040517f08c379a0000000000000000000000000000000000000000000000000000000008152600401610f3190613357565b60405180910390fd5b6000600660008481526020019081526020016000208054610f5a906136b6565b80601f0160208091040260200160405190810160405280929190818152602001828054610f86906136b6565b8015610fd35780601f10610fa857610100808354040283529160200191610fd3565b820191906000526020600020905b815481529060010190602001808311610fb657829003601f168201915b505050505090506000610fe4611cdd565b9050600081511415610ffa57819250505061103d565b60008251111561102f578082604051602001611017929190612fac565b6040516020818303038152906040529250505061103d565b61103884611cf4565b925050505b919050565b6000600560008473ffffffffffffffffffffffffffffffffffffffff1673ffffffffffffffffffffffffffffffffffffffff16815260200190815260200160002060008373ffffffffffffffffffffffffffffffffffffffff1673ffffffffffffffffffffffffffffffffffffffff16815260200190815260200160002060009054906101000a900460ff16905092915050565b61116c816040516024016110ea91906131b7565b6040516020818303038152906040527f41304fac000000000000000000000000000000000000000000000000000000007bffffffffffffffffffffffffffffffffffffffffffffffffffffffff19166020820180517bffffffffffffffffffffffffffffffffffffffffffffffffffffffff8381831617835250505050611d9b565b50565b60007f01ffc9a7000000000000000000000000000000000000000000000000000000007bffffffffffffffffffffffffffffffffffffffffffffffffffffffff1916827bffffffffffffffffffffffffffffffffffffffffffffffffffffffff1916149050919050565b60008073ffffffffffffffffffffffffffffffffffffffff166002600084815260200190815260200160002060009054906101000a900473ffffffffffffffffffffffffffffffffffffffff1673ffffffffffffffffffffffffffffffffffffffff1614159050919050565b600033905090565b816004600083815260200190815260200160002060006101000a81548173ffffffffffffffffffffffffffffffffffffffff021916908373ffffffffffffffffffffffffffffffffffffffff160217905550808273ffffffffffffffffffffffffffffffffffffffff166112c083610a40565b73ffffffffffffffffffffffffffffffffffffffff167f8c5be1e5ebec7d5bd14f71427d1e84f3dd0314c0f7b2291e5b200ac8c7c3b92560405160405180910390a45050565b6000611311826111d9565b611350576040517f08c379a000000000000000000000000000000000000000000000000000000000815260040161134790613297565b60405180910390fd5b600061135b83610a40565b90508073ffffffffffffffffffffffffffffffffffffffff168473ffffffffffffffffffffffffffffffffffffffff1614806113ca57508373ffffffffffffffffffffffffffffffffffffffff166113b284610518565b73ffffffffffffffffffffffffffffffffffffffff16145b806113db57506113da8185611042565b5b91505092915050565b8273ffffffffffffffffffffffffffffffffffffffff1661140482610a40565b73ffffffffffffffffffffffffffffffffffffffff161461145a576040517f08c379a000000000000000000000000000000000000000000000000000000000815260040161145190613397565b60405180910390fd5b600073ffffffffffffffffffffffffffffffffffffffff168273ffffffffffffffffffffffffffffffffffffffff1614156114ca576040517f08c379a00000000000000000000000000000000000000000000000000000000081526004016114c190613257565b60405180910390fd5b6114d5838383611dc4565b6114e060008261124d565b6001600360008573ffffffffffffffffffffffffffffffffffffffff1673ffffffffffffffffffffffffffffffffffffffff168152602001908152602001600020600082825461153091906135cc565b925050819055506001600360008473ffffffffffffffffffffffffffffffffffffffff1673ffffffffffffffffffffffffffffffffffffffff168152602001908152602001600020600082825461158791906134eb565b92505081905550816002600083815260200190815260200160002060006101000a81548173ffffffffffffffffffffffffffffffffffffffff021916908373ffffffffffffffffffffffffffffffffffffffff160217905550808273ffffffffffffffffffffffffffffffffffffffff168473ffffffffffffffffffffffffffffffffffffffff167fddf252ad1be2c89b69c2b068fc378daa952ba7f163c4a11628f55a4df523b3ef60405160405180910390a4505050565b60606000821415611688576040518060400160405280600181526020017f300000000000000000000000000000000000000000000000000000000000000081525090506117e8565b600082905060005b600082146116ba5780806116a3906136e8565b915050600a826116b39190613541565b9150611690565b60008167ffffffffffffffff8111156116fc577f4e487b7100000000000000000000000000000000000000000000000000000000600052604160045260246000fd5b6040519080825280601f01601f19166020018201604052801561172e5781602001600182028036833780820191505090505b5090505b600085146117e15760018261174791906135cc565b9150600a856117569190613731565b603061176291906134eb565b60f81b81838151811061179e577f4e487b7100000000000000000000000000000000000000000000000000000000600052603260045260246000fd5b60200101907effffffffffffffffffffffffffffffffffffffffffffffffffffffffffffff1916908160001a905350600a856117da9190613541565b9450611732565b8093505050505b919050565b6000816040516020016118009190612f95565b6040516020818303038152906040528051906020012060001c9050919050565b600081600001549050919050565b6060600082511415611851576040518060200160405280600081525090506119c8565b60006040518060600160405280604081526020016138b1604091399050600060036002855161188091906134eb565b61188a9190613541565b60046118969190613572565b905060006020826118a791906134eb565b67ffffffffffffffff8111156118e6577f4e487b7100000000000000000000000000000000000000000000000000000000600052604160045260246000fd5b6040519080825280601f01601f1916602001820160405280156119185781602001600182028036833780820191505090505b509050818152600183018586518101602084015b81831015611987576003830192508251603f8160121c168501518253600182019150603f81600c1c168501518253600182019150603f8160061c168501518253600182019150603f811685015182536001820191505061192c565b6003895106600181146119a157600281146119b1576119bc565b613d3d60f01b60028303526119bc565b603d60f81b60018303525b50505050508093505050505b919050565b6119e7828260405180602001604052806000815250611dc9565b5050565b6119f4826111d9565b611a33576040517f08c379a0000000000000000000000000000000000000000000000000000000008152600401611a2a90613317565b60405180910390fd5b80600660008481526020019081526020016000209080519060200190611a5a92919061219c565b505050565b6001816000016000828254019250508190555050565b611b0f838383604051602401611a8d939291906131d9565b6040516020818303038152906040527fe3849f79000000000000000000000000000000000000000000000000000000007bffffffffffffffffffffffffffffffffffffffffffffffffffffffff19166020820180517bffffffffffffffffffffffffffffffffffffffffffffffffffffffff8381831617835250505050611d9b565b505050565b8173ffffffffffffffffffffffffffffffffffffffff168373ffffffffffffffffffffffffffffffffffffffff161415611b83576040517f08c379a0000000000000000000000000000000000000000000000000000000008152600401611b7a90613277565b60405180910390fd5b80600560008573ffffffffffffffffffffffffffffffffffffffff1673ffffffffffffffffffffffffffffffffffffffff16815260200190815260200160002060008473ffffffffffffffffffffffffffffffffffffffff1673ffffffffffffffffffffffffffffffffffffffff16815260200190815260200160002060006101000a81548160ff0219169083151502179055508173ffffffffffffffffffffffffffffffffffffffff168373ffffffffffffffffffffffffffffffffffffffff167f17307eab39ab6107e8899845ad3d59bd9653f200f220920489ca2b5937696c3183604051611c74919061319c565b60405180910390a3505050565b611c8c8484846113e4565b611c9884848484611e24565b611cd7576040517f08c379a0000000000000000000000000000000000000000000000000000000008152600401611cce90613217565b60405180910390fd5b50505050565b606060405180602001604052806000815250905090565b6060611cff826111d9565b611d3e576040517f08c379a0000000000000000000000000000000000000000000000000000000008152600401611d35906133b7565b60405180910390fd5b6000611d48611cdd565b90506000815111611d685760405180602001604052806000815250611d93565b80611d7284611640565b604051602001611d83929190612fac565b6040516020818303038152906040525b915050919050565b60008151905060006a636f6e736f6c652e6c6f679050602083016000808483855afa5050505050565b505050565b611dd38383611fbb565b611de06000848484611e24565b611e1f576040517f08c379a0000000000000000000000000000000000000000000000000000000008152600401611e1690613217565b60405180910390fd5b505050565b6000611e458473ffffffffffffffffffffffffffffffffffffffff16612189565b15611fae578373ffffffffffffffffffffffffffffffffffffffff1663150b7a02611e6e611245565b8786866040518563ffffffff1660e01b8152600401611e909493929190613127565b602060405180830381600087803b158015611eaa57600080fd5b505af1925050508015611edb57506040513d601f19601f82011682018060405250810190611ed8919061252a565b60015b611f5e573d8060008114611f0b576040519150601f19603f3d011682016040523d82523d6000602084013e611f10565b606091505b50600081511415611f56576040517f08c379a0000000000000000000000000000000000000000000000000000000008152600401611f4d90613217565b60405180910390fd5b805181602001fd5b63150b7a0260e01b7bffffffffffffffffffffffffffffffffffffffffffffffffffffffff1916817bffffffffffffffffffffffffffffffffffffffffffffffffffffffff191614915050611fb3565b600190505b949350505050565b600073ffffffffffffffffffffffffffffffffffffffff168273ffffffffffffffffffffffffffffffffffffffff16141561202b576040517f08c379a000000000000000000000000000000000000000000000000000000000815260040161202290613337565b60405180910390fd5b612034816111d9565b15612074576040517f08c379a000000000000000000000000000000000000000000000000000000000815260040161206b90613237565b60405180910390fd5b61208060008383611dc4565b6001600360008473ffffffffffffffffffffffffffffffffffffffff1673ffffffffffffffffffffffffffffffffffffffff16815260200190815260200160002060008282546120d091906134eb565b92505081905550816002600083815260200190815260200160002060006101000a81548173ffffffffffffffffffffffffffffffffffffffff021916908373ffffffffffffffffffffffffffffffffffffffff160217905550808273ffffffffffffffffffffffffffffffffffffffff16600073ffffffffffffffffffffffffffffffffffffffff167fddf252ad1be2c89b69c2b068fc378daa952ba7f163c4a11628f55a4df523b3ef60405160405180910390a45050565b600080823b905060008111915050919050565b8280546121a8906136b6565b90600052602060002090601f0160209004810192826121ca5760008555612211565b82601f106121e357805160ff1916838001178555612211565b82800160010185558215612211579182015b828111156122105782518255916020019190600101906121f5565b5b50905061221e9190612222565b5090565b5b8082111561223b576000816000905550600101612223565b5090565b600061225261224d84613463565b613432565b90508281526020810184848401111561226a57600080fd5b612275848285613674565b509392505050565b60008135905061228c8161382f565b92915050565b6000813590506122a181613846565b92915050565b6000813590506122b68161385d565b92915050565b6000815190506122cb8161385d565b92915050565b600082601f8301126122e257600080fd5b81356122f284826020860161223f565b91505092915050565b60008083601f84011261230d57600080fd5b8235905067ffffffffffffffff81111561232657600080fd5b60208301915083600182028301111561233e57600080fd5b9250929050565b60008135905061235481613874565b92915050565b60006020828403121561236c57600080fd5b600061237a8482850161227d565b91505092915050565b6000806040838503121561239657600080fd5b60006123a48582860161227d565b92505060206123b58582860161227d565b9150509250929050565b6000806000606084860312156123d457600080fd5b60006123e28682870161227d565b93505060206123f38682870161227d565b925050604061240486828701612345565b9150509250925092565b6000806000806080858703121561242457600080fd5b60006124328782880161227d565b94505060206124438782880161227d565b935050604061245487828801612345565b925050606085013567ffffffffffffffff81111561247157600080fd5b61247d878288016122d1565b91505092959194509250565b6000806040838503121561249c57600080fd5b60006124aa8582860161227d565b92505060206124bb85828601612292565b9150509250929050565b600080604083850312156124d857600080fd5b60006124e68582860161227d565b92505060206124f785828601612345565b9150509250929050565b60006020828403121561251357600080fd5b6000612521848285016122a7565b91505092915050565b60006020828403121561253c57600080fd5b600061254a848285016122bc565b91505092915050565b6000806020838503121561256657600080fd5b600083013567ffffffffffffffff81111561258057600080fd5b61258c858286016122fb565b92509250509250929050565b6000602082840312156125aa57600080fd5b60006125b884828501612345565b91505092915050565b6125ca81613600565b82525050565b6125d981613612565b82525050565b60006125ea826134a8565b6125f481856134be565b9350612604818560208601613683565b61260d8161381e565b840191505092915050565b600061262483856134e0565b9350612631838584613674565b82840190509392505050565b6000612648826134b3565b61265281856134cf565b9350612662818560208601613683565b61266b8161381e565b840191505092915050565b6000612681826134b3565b61268b81856134e0565b935061269b818560208601613683565b80840191505092915050565b600081546126b4816136b6565b6126be81866134e0565b945060018216600081146126d957600181146126ea5761271d565b60ff1983168652818601935061271d565b6126f385613493565b60005b83811015612715578154818901526001820191506020810190506126f6565b838801955050505b50505092915050565b60006127336032836134cf565b91507f4552433732313a207472616e7366657220746f206e6f6e20455243373231526560008301527f63656976657220696d706c656d656e74657200000000000000000000000000006020830152604082019050919050565b6000612799601c836134cf565b91507f4552433732313a20746f6b656e20616c7265616479206d696e746564000000006000830152602082019050919050565b60006127d9600a836134e0565b91507f54484952445f574f5244000000000000000000000000000000000000000000006000830152600a82019050919050565b60006128196024836134cf565b91507f4552433732313a207472616e7366657220746f20746865207a65726f2061646460008301527f72657373000000000000000000000000000000000000000000000000000000006020830152604082019050919050565b600061287f6019836134cf565b91507f4552433732313a20617070726f766520746f2063616c6c6572000000000000006000830152602082019050919050565b60006128bf6063836134e0565b91507f222c20226465736372697074696f6e223a20224120686967686c79206163636c60008301527f61696d656420636f6c6c656374696f6e206f6620737175617265732e222c202260208301527f696d616765223a2022646174613a696d6167652f7376672b786d6c3b6261736560408301527f36342c00000000000000000000000000000000000000000000000000000000006060830152606382019050919050565b6000612971600b836134e0565b91507f5345434f4e445f574f52440000000000000000000000000000000000000000006000830152600b82019050919050565b60006129b1602c836134cf565b91507f4552433732313a206f70657261746f7220717565727920666f72206e6f6e657860008301527f697374656e7420746f6b656e00000000000000000000000000000000000000006020830152604082019050919050565b6000612a17600d836134e0565b91507f3c2f746578743e3c2f7376673e000000000000000000000000000000000000006000830152600d82019050919050565b6000612a576038836134cf565b91507f4552433732313a20617070726f76652063616c6c6572206973206e6f74206f7760008301527f6e6572206e6f7220617070726f76656420666f7220616c6c00000000000000006020830152604082019050919050565b6000612abd602a836134cf565b91507f4552433732313a2062616c616e636520717565727920666f7220746865207a6560008301527f726f2061646472657373000000000000000000000000000000000000000000006020830152604082019050919050565b6000612b236029836134cf565b91507f4552433732313a206f776e657220717565727920666f72206e6f6e657869737460008301527f656e7420746f6b656e00000000000000000000000000000000000000000000006020830152604082019050919050565b6000612b89602e836134cf565b91507f45524337323155524953746f726167653a2055524920736574206f66206e6f6e60008301527f6578697374656e7420746f6b656e0000000000000000000000000000000000006020830152604082019050919050565b6000612bef6002836134e0565b91507f227d0000000000000000000000000000000000000000000000000000000000006000830152600282019050919050565b6000612c2f6020836134cf565b91507f4552433732313a206d696e7420746f20746865207a65726f20616464726573736000830152602082019050919050565b6000612c6f6031836134cf565b91507f45524337323155524953746f726167653a2055524920717565727920666f722060008301527f6e6f6e6578697374656e7420746f6b656e0000000000000000000000000000006020830152604082019050919050565b6000612cd5602c836134cf565b91507f4552433732313a20617070726f76656420717565727920666f72206e6f6e657860008301527f697374656e7420746f6b656e00000000000000000000000000000000000000006020830152604082019050919050565b6000612d3b6029836134cf565b91507f4552433732313a207472616e73666572206f6620746f6b656e2074686174206960008301527f73206e6f74206f776e00000000000000000000000000000000000000000000006020830152604082019050919050565b6000612da1602f836134cf565b91507f4552433732314d657461646174613a2055524920717565727920666f72206e6f60008301527f6e6578697374656e7420746f6b656e00000000000000000000000000000000006020830152604082019050919050565b6000612e07600a836134e0565b91507f7b226e616d65223a2022000000000000000000000000000000000000000000006000830152600a82019050919050565b6000612e476021836134cf565b91507f4552433732313a20617070726f76616c20746f2063757272656e74206f776e6560008301527f72000000000000000000000000000000000000000000000000000000000000006020830152604082019050919050565b6000612ead600a836134e0565b91507f46495253545f574f5244000000000000000000000000000000000000000000006000830152600a82019050919050565b6000612eed601d836134e0565b91507f646174613a6170706c69636174696f6e2f6a736f6e3b6261736536342c0000006000830152601d82019050919050565b6000612f2d6031836134cf565b91507f4552433732313a207472616e736665722063616c6c6572206973206e6f74206f60008301527f776e6572206e6f7220617070726f7665640000000000000000000000000000006020830152604082019050919050565b612f8f8161366a565b82525050565b6000612fa18284612676565b915081905092915050565b6000612fb88285612676565b9150612fc48284612676565b91508190509392505050565b6000612fdc8286612676565b9150612fe88285612676565b9150612ff48284612676565b9150819050949350505050565b600061300d82856126a7565b91506130198284612676565b915061302482612a0a565b91508190509392505050565b600061303b826127cc565b91506130478284612676565b915081905092915050565b600061305d82612964565b91506130698284612676565b915081905092915050565b600061307f82612dfa565b915061308c828688612618565b91506130988285612676565b91506130a3826128b2565b91506130af8284612676565b91506130ba82612be2565b915081905095945050505050565b60006130d382612ea0565b91506130df8284612676565b915081905092915050565b60006130f582612ee0565b91506131018284612676565b915081905092915050565b600060208201905061312160008301846125c1565b92915050565b600060808201905061313c60008301876125c1565b61314960208301866125c1565b6131566040830185612f86565b818103606083015261316881846125df565b905095945050505050565b600060408201905061318860008301856125c1565b6131956020830184612f86565b9392505050565b60006020820190506131b160008301846125d0565b92915050565b600060208201905081810360008301526131d1818461263d565b905092915050565b600060608201905081810360008301526131f3818661263d565b90506132026020830185612f86565b61320f60408301846125c1565b949350505050565b6000602082019050818103600083015261323081612726565b9050919050565b600060208201905081810360008301526132508161278c565b9050919050565b600060208201905081810360008301526132708161280c565b9050919050565b6000602082019050818103600083015261329081612872565b9050919050565b600060208201905081810360008301526132b0816129a4565b9050919050565b600060208201905081810360008301526132d081612a4a565b9050919050565b600060208201905081810360008301526132f081612ab0565b9050919050565b6000602082019050818103600083015261331081612b16565b9050919050565b6000602082019050818103600083015261333081612b7c565b9050919050565b6000602082019050818103600083015261335081612c22565b9050919050565b6000602082019050818103600083015261337081612c62565b9050919050565b6000602082019050818103600083015261339081612cc8565b9050919050565b600060208201905081810360008301526133b081612d2e565b9050919050565b600060208201905081810360008301526133d081612d94565b9050919050565b600060208201905081810360008301526133f081612e3a565b9050919050565b6000602082019050818103600083015261341081612f20565b9050919050565b600060208201905061342c6000830184612f86565b92915050565b6000604051905081810181811067ffffffffffffffff82111715613459576134586137ef565b5b8060405250919050565b600067ffffffffffffffff82111561347e5761347d6137ef565b5b601f19601f8301169050602081019050919050565b60008190508160005260206000209050919050565b600081519050919050565b600081519050919050565b600082825260208201905092915050565b600082825260208201905092915050565b600081905092915050565b60006134f68261366a565b91506135018361366a565b9250827fffffffffffffffffffffffffffffffffffffffffffffffffffffffffffffffff0382111561353657613535613762565b5b828201905092915050565b600061354c8261366a565b91506135578361366a565b92508261356757613566613791565b5b828204905092915050565b600061357d8261366a565b91506135888361366a565b9250817fffffffffffffffffffffffffffffffffffffffffffffffffffffffffffffffff04831182151516156135c1576135c0613762565b5b828202905092915050565b60006135d78261366a565b91506135e28361366a565b9250828210156135f5576135f4613762565b5b828203905092915050565b600061360b8261364a565b9050919050565b60008115159050919050565b60007fffffffff0000000000000000000000000000000000000000000000000000000082169050919050565b600073ffffffffffffffffffffffffffffffffffffffff82169050919050565b6000819050919050565b82818337600083830152505050565b60005b838110156136a1578082015181840152602081019050613686565b838111156136b0576000848401525b50505050565b600060028204905060018216806136ce57607f821691505b602082108114156136e2576136e16137c0565b5b50919050565b60006136f38261366a565b91507fffffffffffffffffffffffffffffffffffffffffffffffffffffffffffffffff82141561372657613725613762565b5b600182019050919050565b600061373c8261366a565b91506137478361366a565b92508261375757613756613791565b5b828206905092915050565b7f4e487b7100000000000000000000000000000000000000000000000000000000600052601160045260246000fd5b7f4e487b7100000000000000000000000000000000000000000000000000000000600052601260045260246000fd5b7f4e487b7100000000000000000000000000000000000000000000000000000000600052602260045260246000fd5b7f4e487b7100000000000000000000000000000000000000000000000000000000600052604160045260246000fd5b6000601f19601f8301169050919050565b61383881613600565b811461384357600080fd5b50565b61384f81613612565b811461385a57600080fd5b50565b6138668161361e565b811461387157600080fd5b50565b61387d8161366a565b811461388857600080fd5b5056fe416e204e465420772f20494420257320686173206265656e206d696e74656420746f2025734142434445464748494a4b4c4d4e4f505152535455565758595a6162636465666768696a6b6c6d6e6f707172737475767778797a303132333435363738392b2fa2646970667358221220f14ab8e7f89d883b4ddaeb07f019636782a22080cde664630c1c028955ddfdf064736f6c634300080000333c73766720786d6c6e733d27687474703a2f2f7777772e77332e6f72672f323030302f73766727207072657365727665417370656374526174696f3d27784d696e594d696e206d656574272076696577426f783d273020302033353020333530273e3c7374796c653e2e62617365207b2066696c6c3a2077686974653b20666f6e742d66616d696c793a2073657269663b20666f6e742d73697a653a20323470783b207d3c2f7374796c653e3c726563742077696474683d273130302527206865696768743d2731303025272066696c6c3d27626c61636b27202f3e3c7465787420783d273530252720793d273530252720636c6173733d27626173652720646f6d696e616e742d626173656c696e653d276d6964646c652720746578742d616e63686f723d276d6964646c65273e",
  "linkReferences": {},
  "deployedLinkReferences": {}
}